:03000000020006F5
:03005F0002000399
:0300030002006296
:200062007E007F0020A01930A0FD0EBE00010F750A10750B278E828F8312026EAE82AF83C3
:200082008E828F83C007C0061200AAD006D00780D322AE82AF837589018E8A85088CD28CE1
:2000A200308DFDC28CC28D22AE82AF8390FFFFC007C00612017AAC82D006D0078C9075B09F
:2000C2000E8E828F83C007C00612017AAC828C907508EE75090090000012009490FFFF12CB
:2000E200017AAC82D006D0078C9075B00D750A0A750B008E828F83C007C0061202A41201D7
:200102007AAC828C907508EE75090090000012009490FFFF12017AAC82D006D0078C907573
:20012200B00B750A64750B008E828F83C007C0061202A412017AAC828C907508EE75090078
:2001420090000012009490FFFF12017AAC82D006D0078C9075B007750AE8750B038E828FA0
:20016200831202A412017AAE828E907508EE75090090000012009422750A0A750B00120209
:200182006EAE82E583FF30E7030201F4C374099E74808FF063F08095F050030201F4EE2442
:2001A2000A83F582EE240E83F583E473C2C7CCD1D6DBE0E5EAEF0101010101010101010148
:2001C2009000C080309000F9802B9000A480269000B08021900099801C9000928017900020
:1601E2008280129000F8800D900080800890009880039000FF22EA
:06003500E478FFF6D8FD9F
:200013007900E94400601B7A009002E0780175A000E493F2A308B8000205A0D9F4DAF275B1
:02003300A0FF2C
:2001F800E50A450B60467A01E50A25E0F50AE50B334012F50BE582950AE583950B40030AC4
:2002180080E6C3E50B13F50BE50A13F50AC3E582950AF5F0E583950B4005F58385F082C36C
:0D023800E50B13F50BE50A13F50ADAE122D8
:20003B007800E84400600A790175A000E4F309D8FC7800E84400600C7900900001E4F0A3C3
:04005B00D8FCD9FAFA
:200245007A10E4FBFCE58225E0F582E58333F583EB33FBEC33FCEB950AF5F0EC950B4006C9
:09026500FCABF0438201DADD225A
:0D00060075810B1202DCE58260030200032D
:20026E00C2D5E58330E70DD2D5E4C39582F582E49583F583E50B30E70BE4C3950AF50AE4C2
:16028E00950BF50B1201F830D50BE4C39582F582E49583F58322D4
:2002A400C2D5E58330E70DD2D5E4C39582F582E49583F583E50B30E70DB2D5E4C3950AF5F1
:1802C4000AE4950BF50B12024530D50BE4C39582F582E49583F5832260
:0402DC007582002205
:00000001FF
