:03000000020006F5
:14005F00E4F50AF50BF50CF50DF50EF50FF510F51102000390
:0300030002007385
:20007300C2A7D2A6D2A5D2A420A31520A30890000012024980F5D2A7900001120249804E65
:2000930020A21520A20890000012024980F5D2A7900002120249803620A11520A1089000FD
:2000B3000012024980F5D2A7900003120249801E20A01520A00890000012024980F5D2A7DC
:2000D3009000041202498006900000120249D2A7C2A6D2A5D2A420A31520A3089000001296
:2000F300024980F5D2A6900005120249804E20A21520A20890000012024980F5D2A69000EA
:2001130006120249803620A11520A10890000012024980F5D2A6900007120249801E20A0E8
:200133001520A00890000012024980F5D2A69000081202498006900000120249D2A7D2A69C
:20015300C2A5D2A420A31520A30890000012024980F5D2A5900009120249804E20A2152078
:20017300A20890000012024980F5D2A590000A120249803620A11520A108900000120249B0
:2001930080F5D2A590000B120249801E20A01520A00890000012024980F5D2A590000C12A6
:2001B30002498006900000120249D2A7D2A6D2A5C2A420A31620A30890000012024980F59A
:2001D300D2A490000D12024902007320A21620A20890000012024980F5D2A490000E1202FB
:2001F3004902007320A11620A10890000012024980F5D2A490000F12024902007320A0166F
:2002130020A00890000012024980F5D2A49000101202490200739000001202490200732235
:20023300AE82AF837589018E8A85088CD28C308DFDC28CC28D22AE82AF831EBEFF011FBE27
:20025300FF05BFFF028016850E10850F11850C0E850D0F850A0C850B0D8E0A8F0B90FFFFB1
:20027300120309AE828E9075B00E850A82850B83120309AE828E907508EE750900900000C3
:2002930012023390FFFF120309AE828E9075B00D850C82850D83120309AE828E907508EED9
:2002B30075090090000012023390FFFF120309AE828E9075B00B850E82850F83120309AEB4
:2002D300828E907508EE75090090000012023390FFFF120309AE828E9075B00785108285E9
:2002F3001183120309AE828E907508EE75090090000012023322AE82E583FF30E703020353
:20031300A6C3740F9E74808FF063F08095F050030203A6EE240A83F582EE241483F583E45C
:2003330073545A60656A6F74797E83888D92979CA103030303030303030303030303030355
:20035300039000C00203A99000F90203A99000A480449000B0803F900099803A90009280D6
:200373003590008280309000F8802B90008080269000908021900088801C900083801790DB
:1703930000A780129000A1800D900086800890008E80039000FF226C
:06003500E478FFF6D8FD9F
:200013007900E94400601B7A009003AE780175A000E493F2A308B8000205A0D9F4DAF275E2
:02003300A0FF2C
:20003B007800E84400600A790175A000E4F309D8FC7800E84400600C7900900001E4F0A3C3
:04005B00D8FCD9FAFA
:0D0006007581111203AAE582600302000358
:0403AA007582002236
:00000001FF
